:020000040000FA
:060000000A128A11EE2F26
:100C560083160313081488140800700C83120313F8
:100C6600031C8813031888170800700C83120313DB
:100C7600031C0813031808170800700C83120313CB
:100C8600031C88120318881608007008203E84008A
:100C960083130008831203138600080083160317C4
:100CA6008901831603138601831203138601080044
:100CB60083160313881208138813831203138812EA
:100CC6000813881308008312031308080139F20079
:100CD600F3017208F0007308F100712E0800831208
:100CE6000313080C0139F200F3017208F0007308CF
:100CF600F1007D2E080083120313080D080D01393B
:100D0600F200F3017208F0007308F1008A2E080061
:100D16003F3406345B344F3466346D347D340734E7
:100D26007F346F3477347C3439345E3479347134BB
:100D36007E088A007F0882000A128A119B260A1200
:100D46008A118000840A04087D0603190034FF0A0C
:100D56000319FE0A9F2EBD2EFF30F0070318F10A75
:100D6600FF30F107C730F200B82EF20BB72EBB2EBC
:100D7600BC2EBD2E70087104031DC22EC32EAF2ECD
:100D8600C42E0800F601F701F801F901AE2FAE2FC7
:100D96000130F8000030F900D02F0A128A115B26C4
:100DA6000A128A110A128A112B260A128A110A12AB
:100DB6008A1151260A128A110230F8000030F90011
:100DC600D02F0A128A1172260A128A117003710430
:100DD600031DEE2EEF2ED02F0A128A117E260A123E
:100DE6008A1170087104031DF92EFA2ED02F0330D4
:100DF600F8000030F900D02FD02F0130F00000307D
:100E0600F1000A128A1130260A128A110130F00006
:100E16000030F1000A128A1138260A128A110030AF
:100E2600F000F1000A128A1140260A128A110430D3
:100E3600F8000030F900D02FB830F4000B30F50080
:100E46000630F8000030F900D02F0130F0000030F5
:100E5600F1000A128A11AE260A128A11FF30F4072F
:100E66000318F50AFF30F5077508803AFF00803051
:100E76007F02031D402F013074020318432F442FB5
:100E8600492F0730F8000030F900492F0A128A115D
:100E960066260A128A1170037104031D532F542FFC
:100EA600D02F0930F8000030F900D02FD02F0130B4
:100EB600F6070318F70A0030F7070830F800003085
:100EC600F900D02F0130F0000030F1000A128A112B
:100ED60030260A128A110030F000F1000A128A1137
:100EE60038260A128A110130F0000030F1000A1289
:100EF6008A1140260A128A110A128A1166260A12D5
:100F06008A1170037104031D892F8A2FD02F09308F
:100F1600F8000030F900D02FD02F0030F000F1009B
:100F26000A128A1130260A128A110030F000F100E6
:100F36000A128A1138260A128A110030F000F100CE
:100F46000A128A1140260A128A110230F80000306D
:100F5600F900D02FD02F7908003A0319B32FD02FDC
:100F66007808003A0319CB2E013A0319D02E033A1A
:100F76000319E42E013A0319002F073A03191F2F0C
:100F8600023A0319282F013A03195A2F0F3A031967
:100F9600652F013A0319902FD02F7708F1007608B4
:100FA600F0000A128A1148260A128A117708803A36
:100FB600FF0080307F02031DE22F0A307602031CF9
:100FC600E52FE62FAE2FF601F701AE2FAE2FAE2F8F
:100FD6000A128A11002883133030FD000630FE0005
:100FE6008B30FF00203084000A128A119F260A12D5
:0A0FF6008A1183010A128A11C52E28
:04400E00D4E0FFFFFC
:00000001FF
